{
  "_format": "hh-sol-artifact-1",
  "contractName": "NFTMarketplace",
  "sourceName": "contracts/NFTMarketplace.sol",
  "abi": [
    {
      "inputs": [],
      "stateMutability": "nonpayable",
      "type": "constructor"
    },
    {
      "inputs": [],
      "name": "ERC721EnumerableForbiddenBatchMint",
      "type": "error"
    },
    {
      "inputs": [
        {
          "internalType": "address",
          "name": "sender",
          "type": "address"
        },
        {
          "internalType": "uint256",
          "name": "tokenId",
          "type": "uint256"
        },
        {
          "internalType": "address",
          "name": "owner",
          "type": "address"
        }
      ],
      "name": "ERC721IncorrectOwner",
      "type": "error"
    },
    {
      "inputs": [
        {
          "internalType": "address",
          "name": "operator",
          "type": "address"
        },
        {
          "internalType": "uint256",
          "name": "tokenId",
          "type": "uint256"
        }
      ],
      "name": "ERC721InsufficientApproval",
      "type": "error"
    },
    {
      "inputs": [
        {
          "internalType": "address",
          "name": "approver",
          "type": "address"
        }
      ],
      "name": "ERC721InvalidApprover",
      "type": "error"
    },
    {
      "inputs": [
        {
          "internalType": "address",
          "name": "operator",
          "type": "address"
        }
      ],
      "name": "ERC721InvalidOperator",
      "type": "error"
    },
    {
      "inputs": [
        {
          "internalType": "address",
          "name": "owner",
          "type": "address"
        }
      ],
      "name": "ERC721InvalidOwner",
      "type": "error"
    },
    {
      "inputs": [
        {
          "internalType": "address",
          "name": "receiver",
          "type": "address"
        }
      ],
      "name": "ERC721InvalidReceiver",
      "type": "error"
    },
    {
      "inputs": [
        {
          "internalType": "address",
          "name": "sender",
          "type": "address"
        }
      ],
      "name": "ERC721InvalidSender",
      "type": "error"
    },
    {
      "inputs": [
        {
          "internalType": "uint256",
          "name": "tokenId",
          "type": "uint256"
        }
      ],
      "name": "ERC721NonexistentToken",
      "type": "error"
    },
    {
      "inputs": [
        {
          "internalType": "address",
          "name": "owner",
          "type": "address"
        },
        {
          "internalType": "uint256",
          "name": "index",
          "type": "uint256"
        }
      ],
      "name": "ERC721OutOfBoundsIndex",
      "type": "error"
    },
    {
      "inputs": [
        {
          "internalType": "address",
          "name": "addr",
          "type": "address"
        }
      ],
      "name": "NOT_OWNER",
      "type": "error"
    },
    {
      "inputs": [
        {
          "internalType": "uint256",
          "name": "num",
          "type": "uint256"
        }
      ],
      "name": "ReachedMAXLIMIT",
      "type": "error"
    },
    {
      "anonymous": false,
      "inputs": [
        {
          "indexed": true,
          "internalType": "address",
          "name": "owner",
          "type": "address"
        },
        {
          "indexed": true,
          "internalType": "address",
          "name": "approved",
          "type": "address"
        },
        {
          "indexed": true,
          "internalType": "uint256",
          "name": "tokenId",
          "type": "uint256"
        }
      ],
      "name": "Approval",
      "type": "event"
    },
    {
      "anonymous": false,
      "inputs": [
        {
          "indexed": true,
          "internalType": "address",
          "name": "owner",
          "type": "address"
        },
        {
          "indexed": true,
          "internalType": "address",
          "name": "operator",
          "type": "address"
        },
        {
          "indexed": false,
          "internalType": "bool",
          "name": "approved",
          "type": "bool"
        }
      ],
      "name": "ApprovalForAll",
      "type": "event"
    },
    {
      "anonymous": false,
      "inputs": [
        {
          "indexed": false,
          "internalType": "uint256",
          "name": "_fromTokenId",
          "type": "uint256"
        },
        {
          "indexed": false,
          "internalType": "uint256",
          "name": "_toTokenId",
          "type": "uint256"
        }
      ],
      "name": "BatchMetadataUpdate",
      "type": "event"
    },
    {
      "anonymous": false,
      "inputs": [
        {
          "indexed": false,
          "internalType": "uint256",
          "name": "_tokenId",
          "type": "uint256"
        }
      ],
      "name": "MetadataUpdate",
      "type": "event"
    },
    {
      "anonymous": false,
      "inputs": [
        {
          "indexed": true,
          "internalType": "uint256",
          "name": "tokenId",
          "type": "uint256"
        },
        {
          "indexed": false,
          "internalType": "address",
          "name": "owner",
          "type": "address"
        },
        {
          "indexed": false,
          "internalType": "address",
          "name": "seller",
          "type": "address"
        },
        {
          "indexed": false,
          "internalType": "uint256",
          "name": "price",
          "type": "uint256"
        },
        {
          "indexed": false,
          "internalType": "bool",
          "name": "currentlyListed",
          "type": "bool"
        }
      ],
      "name": "TokenListedSuccess",
      "type": "event"
    },
    {
      "anonymous": false,
      "inputs": [
        {
          "indexed": true,
          "internalType": "address",
          "name": "from",
          "type": "address"
        },
        {
          "indexed": true,
          "internalType": "address",
          "name": "to",
          "type": "address"
        },
        {
          "indexed": true,
          "internalType": "uint256",
          "name": "tokenId",
          "type": "uint256"
        }
      ],
      "name": "Transfer",
      "type": "event"
    },
    {
      "inputs": [],
      "name": "TokenId",
      "outputs": [
        {
          "internalType": "uint256",
          "name": "",
          "type": "uint256"
        }
      ],
      "stateMutability": "view",
      "type": "function"
    },
    {
      "inputs": [
        {
          "internalType": "address",
          "name": "to",
          "type": "address"
        },
        {
          "internalType": "uint256",
          "name": "tokenId",
          "type": "uint256"
        }
      ],
      "name": "approve",
      "outputs": [],
      "stateMutability": "nonpayable",
      "type": "function"
    },
    {
      "inputs": [
        {
          "internalType": "address",
          "name": "owner",
          "type": "address"
        }
      ],
      "name": "balanceOf",
      "outputs": [
        {
          "internalType": "uint256",
          "name": "",
          "type": "uint256"
        }
      ],
      "stateMutability": "view",
      "type": "function"
    },
    {
      "inputs": [
        {
          "internalType": "uint256",
          "name": "tokenId",
          "type": "uint256"
        },
        {
          "internalType": "uint256",
          "name": "price",
          "type": "uint256"
        }
      ],
      "name": "createListedToken",
      "outputs": [],
      "stateMutability": "nonpayable",
      "type": "function"
    },
    {
      "inputs": [
        {
          "internalType": "uint256",
          "name": "tokenId",
          "type": "uint256"
        }
      ],
      "name": "executeSale",
      "outputs": [],
      "stateMutability": "payable",
      "type": "function"
    },
    {
      "inputs": [],
      "name": "fee",
      "outputs": [
        {
          "internalType": "uint256",
          "name": "",
          "type": "uint256"
        }
      ],
      "stateMutability": "view",
      "type": "function"
    },
    {
      "inputs": [],
      "name": "getAllNFTs",
      "outputs": [
        {
          "components": [
            {
              "internalType": "uint256",
              "name": "id",
              "type": "uint256"
            },
            {
              "internalType": "address payable",
              "name": "owner",
              "type": "address"
            },
            {
              "internalType": "address payable",
              "name": "seller",
              "type": "address"
            },
            {
              "internalType": "uint256",
              "name": "price",
              "type": "uint256"
            },
            {
              "internalType": "bool",
              "name": "listedOrNot",
              "type": "bool"
            }
          ],
          "internalType": "struct NFTMarketplace.ListedToken[]",
          "name": "",
          "type": "tuple[]"
        }
      ],
      "stateMutability": "view",
      "type": "function"
    },
    {
      "inputs": [
        {
          "internalType": "uint256",
          "name": "tokenId",
          "type": "uint256"
        }
      ],
      "name": "getApproved",
      "outputs": [
        {
          "internalType": "address",
          "name": "",
          "type": "address"
        }
      ],
      "stateMutability": "view",
      "type": "function"
    },
    {
      "inputs": [],
      "name": "getCurrentToken",
      "outputs": [
        {
          "internalType": "uint256",
          "name": "",
          "type": "uint256"
        }
      ],
      "stateMutability": "view",
      "type": "function"
    },
    {
      "inputs": [],
      "name": "getFeePrice",
      "outputs": [
        {
          "internalType": "uint256",
          "name": "",
          "type": "uint256"
        }
      ],
      "stateMutability": "view",
      "type": "function"
    },
    {
      "inputs": [],
      "name": "getLatestIdToListedToken",
      "outputs": [
        {
          "components": [
            {
              "internalType": "uint256",
              "name": "id",
              "type": "uint256"
            },
            {
              "internalType": "address payable",
              "name": "owner",
              "type": "address"
            },
            {
              "internalType": "address payable",
              "name": "seller",
              "type": "address"
            },
            {
              "internalType": "uint256",
              "name": "price",
              "type": "uint256"
            },
            {
              "internalType": "bool",
              "name": "listedOrNot",
              "type": "bool"
            }
          ],
          "internalType": "struct NFTMarketplace.ListedToken",
          "name": "",
          "type": "tuple"
        }
      ],
      "stateMutability": "view",
      "type": "function"
    },
    {
      "inputs": [
        {
          "internalType": "uint256",
          "name": "tokenId",
          "type": "uint256"
        }
      ],
      "name": "getListedTokenForId",
      "outputs": [
        {
          "components": [
            {
              "internalType": "uint256",
              "name": "id",
              "type": "uint256"
            },
            {
              "internalType": "address payable",
              "name": "owner",
              "type": "address"
            },
            {
              "internalType": "address payable",
              "name": "seller",
              "type": "address"
            },
            {
              "internalType": "uint256",
              "name": "price",
              "type": "uint256"
            },
            {
              "internalType": "bool",
              "name": "listedOrNot",
              "type": "bool"
            }
          ],
          "internalType": "struct NFTMarketplace.ListedToken",
          "name": "",
          "type": "tuple"
        }
      ],
      "stateMutability": "view",
      "type": "function"
    },
    {
      "inputs": [],
      "name": "getMyNFTs",
      "outputs": [
        {
          "components": [
            {
              "internalType": "uint256",
              "name": "id",
              "type": "uint256"
            },
            {
              "internalType": "address payable",
              "name": "owner",
              "type": "address"
            },
            {
              "internalType": "address payable",
              "name": "seller",
              "type": "address"
            },
            {
              "internalType": "uint256",
              "name": "price",
              "type": "uint256"
            },
            {
              "internalType": "bool",
              "name": "listedOrNot",
              "type": "bool"
            }
          ],
          "internalType": "struct NFTMarketplace.ListedToken[]",
          "name": "",
          "type": "tuple[]"
        }
      ],
      "stateMutability": "view",
      "type": "function"
    },
    {
      "inputs": [
        {
          "internalType": "address",
          "name": "owner",
          "type": "address"
        },
        {
          "internalType": "address",
          "name": "operator",
          "type": "address"
        }
      ],
      "name": "isApprovedForAll",
      "outputs": [
        {
          "internalType": "bool",
          "name": "",
          "type": "bool"
        }
      ],
      "stateMutability": "view",
      "type": "function"
    },
    {
      "inputs": [],
      "name": "name",
      "outputs": [
        {
          "internalType": "string",
          "name": "",
          "type": "string"
        }
      ],
      "stateMutability": "view",
      "type": "function"
    },
    {
      "inputs": [
        {
          "internalType": "uint256",
          "name": "tokenId",
          "type": "uint256"
        }
      ],
      "name": "ownerOf",
      "outputs": [
        {
          "internalType": "address",
          "name": "",
          "type": "address"
        }
      ],
      "stateMutability": "view",
      "type": "function"
    },
    {
      "inputs": [
        {
          "internalType": "string",
          "name": "uri",
          "type": "string"
        },
        {
          "internalType": "uint256",
          "name": "price",
          "type": "uint256"
        }
      ],
      "name": "safeMint",
      "outputs": [],
      "stateMutability": "payable",
      "type": "function"
    },
    {
      "inputs": [
        {
          "internalType": "address",
          "name": "from",
          "type": "address"
        },
        {
          "internalType": "address",
          "name": "to",
          "type": "address"
        },
        {
          "internalType": "uint256",
          "name": "tokenId",
          "type": "uint256"
        }
      ],
      "name": "safeTransferFrom",
      "outputs": [],
      "stateMutability": "nonpayable",
      "type": "function"
    },
    {
      "inputs": [
        {
          "internalType": "address",
          "name": "from",
          "type": "address"
        },
        {
          "internalType": "address",
          "name": "to",
          "type": "address"
        },
        {
          "internalType": "uint256",
          "name": "tokenId",
          "type": "uint256"
        },
        {
          "internalType": "bytes",
          "name": "data",
          "type": "bytes"
        }
      ],
      "name": "safeTransferFrom",
      "outputs": [],
      "stateMutability": "nonpayable",
      "type": "function"
    },
    {
      "inputs": [
        {
          "internalType": "address",
          "name": "operator",
          "type": "address"
        },
        {
          "internalType": "bool",
          "name": "approved",
          "type": "bool"
        }
      ],
      "name": "setApprovalForAll",
      "outputs": [],
      "stateMutability": "nonpayable",
      "type": "function"
    },
    {
      "inputs": [
        {
          "internalType": "bytes4",
          "name": "interfaceId",
          "type": "bytes4"
        }
      ],
      "name": "supportsInterface",
      "outputs": [
        {
          "internalType": "bool",
          "name": "",
          "type": "bool"
        }
      ],
      "stateMutability": "view",
      "type": "function"
    },
    {
      "inputs": [],
      "name": "symbol",
      "outputs": [
        {
          "internalType": "string",
          "name": "",
          "type": "string"
        }
      ],
      "stateMutability": "view",
      "type": "function"
    },
    {
      "inputs": [
        {
          "internalType": "uint256",
          "name": "index",
          "type": "uint256"
        }
      ],
      "name": "tokenByIndex",
      "outputs": [
        {
          "internalType": "uint256",
          "name": "",
          "type": "uint256"
        }
      ],
      "stateMutability": "view",
      "type": "function"
    },
    {
      "inputs": [
        {
          "internalType": "address",
          "name": "owner",
          "type": "address"
        },
        {
          "internalType": "uint256",
          "name": "index",
          "type": "uint256"
        }
      ],
      "name": "tokenOfOwnerByIndex",
      "outputs": [
        {
          "internalType": "uint256",
          "name": "",
          "type": "uint256"
        }
      ],
      "stateMutability": "view",
      "type": "function"
    },
    {
      "inputs": [
        {
          "internalType": "uint256",
          "name": "tokenId",
          "type": "uint256"
        }
      ],
      "name": "tokenURI",
      "outputs": [
        {
          "internalType": "string",
          "name": "",
          "type": "string"
        }
      ],
      "stateMutability": "view",
      "type": "function"
    },
    {
      "inputs": [],
      "name": "totalSold",
      "outputs": [
        {
          "internalType": "uint256",
          "name": "",
          "type": "uint256"
        }
      ],
      "stateMutability": "view",
      "type": "function"
    },
    {
      "inputs": [],
      "name": "totalSupply",
      "outputs": [
        {
          "internalType": "uint256",
          "name": "",
          "type": "uint256"
        }
      ],
      "stateMutability": "view",
      "type": "function"
    },
    {
      "inputs": [
        {
          "internalType": "address",
          "name": "from",
          "type": "address"
        },
        {
          "internalType": "address",
          "name": "to",
          "type": "address"
        },
        {
          "internalType": "uint256",
          "name": "tokenId",
          "type": "uint256"
        }
      ],
      "name": "transferFrom",
      "outputs": [],
      "stateMutability": "nonpayable",
      "type": "function"
    },
    {
      "inputs": [
        {
          "internalType": "uint256",
          "name": "_fee",
          "type": "uint256"
        }
      ],
      "name": "updateFee",
      "outputs": [],
      "stateMutability": "payable",
      "type": "function"
    }
  ],
  "bytecode": "0x60806040526000600b55662386f26fc10000600d556000600e553480156200002657600080fd5b506040518060400160405280600e81526020016d4e46544d61726b6574706c61636560901b815250604051806040016040528060048152602001634e46544d60e01b81525081600090816200007c91906200014b565b5060016200008b82826200014b565b5050600c80546001600160a01b031916331790555062000217565b634e487b7160e01b600052604160045260246000fd5b600181811c90821680620000d157607f821691505b602082108103620000f257634e487b7160e01b600052602260045260246000fd5b50919050565b601f8211156200014657600081815260208120601f850160051c81016020861015620001215750805b601f850160051c820191505b8181101562000142578281556001016200012d565b5050505b505050565b81516001600160401b03811115620001675762000167620000a6565b6200017f81620001788454620000bc565b84620000f8565b602080601f831160018114620001b757600084156200019e5750858301515b600019600386901b1c1916600185901b17855562000142565b600085815260208120601f198616915b82811015620001e857888601518255948401946001909101908401620001c7565b5085821015620002075787850151600019600388901b60f8161c191681555b5050505050600190811b01905550565b6122c780620002276000396000f3fe6080604052600436106101c25760003560e01c80638e264590116100f7578063a22cb46511610095578063ddca3f4311610064578063ddca3f43146104ca578063e0391b09146104e0578063e985e9c5146104f5578063ef2d17461461051557600080fd5b8063a22cb46514610455578063b88d4fde14610475578063c87b56dd14610495578063d1a88ae5146104b557600080fd5b806395d89b41116100d157806395d89b411461040257806397a3672f146104175780639b1225c41461042c5780639ffb8b491461043f57600080fd5b80638e264590146103ac5780639012c4a8146103d95780639106d7ba146103ec57600080fd5b806342842e0e1161016457806355524f561161013e57806355524f561461032a578063629cb2e41461034a5780636352211e1461036c57806370a082311461038c57600080fd5b806342842e0e146102d757806346b145e1146102f75780634f6ccce71461030a57600080fd5b8063095ea7b3116101a0578063095ea7b31461025657806318160ddd1461027857806323b872dd146102975780632f745c59146102b757600080fd5b806301ffc9a7146101c757806306fdde03146101fc578063081812fc1461021e575b600080fd5b3480156101d357600080fd5b506101e76101e2366004611c7b565b61052a565b60405190151581526020015b60405180910390f35b34801561020857600080fd5b5061021161053b565b6040516101f39190611ce8565b34801561022a57600080fd5b5061023e610239366004611cfb565b6105cd565b6040516001600160a01b0390911681526020016101f3565b34801561026257600080fd5b50610276610271366004611d30565b6105f6565b005b34801561028457600080fd5b506008545b6040519081526020016101f3565b3480156102a357600080fd5b506102766102b2366004611d5a565b610605565b3480156102c357600080fd5b506102896102d2366004611d30565b610695565b3480156102e357600080fd5b506102766102f2366004611d5a565b6106fa565b610276610305366004611e22565b61071a565b34801561031657600080fd5b50610289610325366004611cfb565b61077c565b34801561033657600080fd5b50610276610345366004611e7b565b6107d5565b34801561035657600080fd5b5061035f61090f565b6040516101f39190611edd565b34801561037857600080fd5b5061023e610387366004611cfb565b610b2c565b34801561039857600080fd5b506102896103a7366004611f2b565b610b37565b3480156103b857600080fd5b506103cc6103c7366004611cfb565b610b7f565b6040516101f39190611f46565b6102766103e7366004611cfb565b610be9565b3480156103f857600080fd5b50610289600e5481565b34801561040e57600080fd5b50610211610c1e565b34801561042357600080fd5b50600d54610289565b61027661043a366004611cfb565b610c2d565b34801561044b57600080fd5b50610289600b5481565b34801561046157600080fd5b50610276610470366004611f54565b610dc9565b34801561048157600080fd5b50610276610490366004611f90565b610dd4565b3480156104a157600080fd5b506102116104b0366004611cfb565b610deb565b3480156104c157600080fd5b506103cc610df6565b3480156104d657600080fd5b50610289600d5481565b3480156104ec57600080fd5b5061035f610e63565b34801561050157600080fd5b506101e761051036600461200c565b610f84565b34801561052157600080fd5b50600b54610289565b600061053582610fb2565b92915050565b60606000805461054a9061203f565b80601f01602080910402602001604051908101604052809291908181526020018280546105769061203f565b80156105c35780601f10610598576101008083540402835291602001916105c3565b820191906000526020600020905b8154815290600101906020018083116105a657829003601f168201915b5050505050905090565b60006105d882610fd7565b506000828152600460205260409020546001600160a01b0316610535565b610601828233611010565b5050565b6001600160a01b03821661063457604051633250574960e11b8152600060048201526024015b60405180910390fd5b600061064183833361101d565b9050836001600160a01b0316816001600160a01b03161461068f576040516364283d7b60e01b81526001600160a01b038086166004830152602482018490528216604482015260640161062b565b50505050565b60006106a083610b37565b82106106d15760405163295f44f760e21b81526001600160a01b03841660048201526024810183905260440161062b565b506001600160a01b03919091166000908152600660209081526040808320938352929052205490565b61071583838360405180602001604052806000815250610dd4565b505050565b600b805490600061072a8361208f565b919050555061073b33600b54611032565b610747600b548361104c565b610753600b54826107d5565b60c8600b541061060157600b54604051630a7837cb60e11b815260040161062b91815260200190565b600061078760085490565b82106107b05760405163295f44f760e21b8152600060048201526024810183905260440161062b565b600882815481106107c3576107c36120a8565b90600052602060002001549050919050565b600081116108255760405162461bcd60e51b815260206004820152601c60248201527f4d616b652073757265206974206973206e6f74206e6567617469766500000000604482015260640161062b565b6040805160a081018252838152306020808301828152338486018181526060860188815260016080880181815260008c8152600f9097529890952096518755925193860180546001600160a01b039586166001600160a01b03199182161790915590516002870180549190951691161790925551600384015592516004909201805492151560ff19909316929092179091556108c291908461109c565b604080513081523360208201529081018290526001606082015282907f9339409317fd01fabff48b703019016f49159bacc801ae872d2ca637d226e4c09060800160405180910390a25050565b600b5460609060008080805b8481116109aa5733600f60006109328460016120be565b81526020810191909152604001600020600101546001600160a01b03161480610985575033600f60006109668460016120be565b81526020810191909152604001600020600201546001600160a01b0316145b15610998576109956001856120be565b93505b806109a28161208f565b91505061091b565b5060008367ffffffffffffffff8111156109c6576109c6611d96565b6040519080825280602002602001820160405280156109ff57816020015b6109ec611c37565b8152602001906001900390816109e45790505b50905060005b85811015610b225733600f6000610a1d8460016120be565b81526020810191909152604001600020600101546001600160a01b03161480610a70575033600f6000610a518460016120be565b81526020810191909152604001600020600201546001600160a01b0316145b15610b1057610a808160016120be565b6000818152600f6020908152604091829020825160a0810184528154815260018201546001600160a01b039081169382019390935260028201549092169282019290925260038201546060820152600482015460ff161515608082015284519295509091849087908110610af657610af66120a8565b6020908102919091010152610b0c6001866120be565b9450505b80610b1a8161208f565b915050610a05565b5095945050505050565b600061053582610fd7565b60006001600160a01b038216610b63576040516322718ad960e21b81526000600482015260240161062b565b506001600160a01b031660009081526003602052604090205490565b610b87611c37565b506000908152600f6020908152604091829020825160a0810184528154815260018201546001600160a01b03908116938201939093526002820154909216928201929092526003820154606082015260049091015460ff161515608082015290565b600c546001600160a01b03163303610c0057600d55565b60405163e92831a760e01b815233600482015260240161062b565b50565b60606001805461054a9061203f565b6000818152600f602052604081206002810180546004909201805460ff191660011790556001600160a01b0319821633179055600e80546001600160a01b0390921692610c798361208f565b9190505550610c8930338461114c565b610c9330836105f6565b600c54600d546040516000926001600160a01b031691908381818185875af1925050503d8060008114610ce2576040519150601f19603f3d011682016040523d82523d6000602084013e610ce7565b606091505b5050905080610d2f5760405162461bcd60e51b81526020600482015260146024820152732330b4b632b2103a379039b2b73a1032ba3432b960611b604482015260640161062b565b6000826001600160a01b03163460405160006040518083038185875af1925050503d8060008114610d7c576040519150601f19603f3d011682016040523d82523d6000602084013e610d81565b606091505b505090508061068f5760405162461bcd60e51b81526020600482015260146024820152732330b4b632b2103a379039b2b73a1032ba3432b960611b604482015260640161062b565b610601338383611167565b610ddf848484610605565b61068f84848484611206565b60606105358261132f565b610dfe611c37565b50600b546000908152600f6020908152604091829020825160a0810184528154815260018201546001600160a01b03908116938201939093526002820154909216928201929092526003820154606082015260049091015460ff161515608082015290565b600b5460609060008167ffffffffffffffff811115610e8457610e84611d96565b604051908082528060200260200182016040528015610ebd57816020015b610eaa611c37565b815260200190600190039081610ea25790505b509050600080805b84811015610f7a57610ed88160016120be565b6000818152600f6020908152604091829020825160a0810184528154815260018201546001600160a01b039081169382019390935260028201549092169282019290925260038201546060820152600482015460ff161515608082015286519294509091869086908110610f4e57610f4e6120a8565b6020908102919091010152610f646001856120be565b9350508080610f729061208f565b915050610ec5565b5091949350505050565b6001600160a01b03918216600090815260056020908152604080832093909416825291909152205460ff1690565b60006001600160e01b03198216632483248360e11b1480610535575061053582611438565b6000818152600260205260408120546001600160a01b03168061053557604051637e27328960e01b81526004810184905260240161062b565b610715838383600161145d565b600061102a848484611563565b949350505050565b610601828260405180602001604052806000815250611630565b6000828152600a60205260409020611064828261211f565b506040518281527ff8e1a15aba9398e019f0b49df1a4fde98ee17ae345cb5f6b5e2c27f5033e8ce79060200160405180910390a15050565b6001600160a01b0382166110c657604051633250574960e11b81526000600482015260240161062b565b60006110d48383600061101d565b90506001600160a01b03811661110057604051637e27328960e01b81526004810183905260240161062b565b836001600160a01b0316816001600160a01b03161461068f576040516364283d7b60e01b81526001600160a01b038086166004830152602482018490528216604482015260640161062b565b61071583838360405180602001604052806000815250611647565b6001600160a01b03821661119957604051630b61174360e31b81526001600160a01b038316600482015260240161062b565b6001600160a01b03838116600081815260056020908152604080832094871680845294825291829020805460ff191686151590811790915591519182527f17307eab39ab6107e8899845ad3d59bd9653f200f220920489ca2b5937696c31910160405180910390a3505050565b6001600160a01b0383163b1561068f57604051630a85bd0160e11b81526001600160a01b0384169063150b7a02906112489033908890879087906004016121df565b6020604051808303816000875af1925050508015611283575060408051601f3d908101601f191682019092526112809181019061221c565b60015b6112ec573d8080156112b1576040519150601f19603f3d011682016040523d82523d6000602084013e6112b6565b606091505b5080516000036112e457604051633250574960e11b81526001600160a01b038516600482015260240161062b565b805181602001fd5b6001600160e01b03198116630a85bd0160e11b1461132857604051633250574960e11b81526001600160a01b038516600482015260240161062b565b5050505050565b606061133a82610fd7565b506000828152600a6020526040812080546113549061203f565b80601f01602080910402602001604051908101604052809291908181526020018280546113809061203f565b80156113cd5780601f106113a2576101008083540402835291602001916113cd565b820191906000526020600020905b8154815290600101906020018083116113b057829003601f168201915b5050505050905060006113eb60408051602081019091526000815290565b905080516000036113fd575092915050565b81511561142f578082604051602001611417929190612239565b60405160208183030381529060405292505050919050565b61102a84611652565b60006001600160e01b0319821663780e9d6360e01b14806105355750610535826116c7565b808061147157506001600160a01b03821615155b1561153357600061148184610fd7565b90506001600160a01b038316158015906114ad5750826001600160a01b0316816001600160a01b031614155b80156114c057506114be8184610f84565b155b156114e95760405163a9fbf51f60e01b81526001600160a01b038416600482015260240161062b565b81156115315783856001600160a01b0316826001600160a01b03167f8c5be1e5ebec7d5bd14f71427d1e84f3dd0314c0f7b2291e5b200ac8c7c3b92560405160405180910390a45b505b5050600090815260046020526040902080546001600160a01b0319166001600160a01b0392909216919091179055565b600080611571858585611717565b90506001600160a01b0381166115ce576115c984600880546000838152600960205260408120829055600182018355919091527ff3f7a9fe364faab93b216da50a3214154f22a0a2b415b23a84c8169e8b636ee30155565b6115f1565b846001600160a01b0316816001600160a01b0316146115f1576115f18185611810565b6001600160a01b03851661160d57611608846118a1565b61102a565b846001600160a01b0316816001600160a01b03161461102a5761102a8585611950565b61163a83836119a0565b6107156000848484611206565b610ddf84848461109c565b606061165d82610fd7565b50600061167560408051602081019091526000815290565b9050600081511161169557604051806020016040528060008152506116c0565b8061169f84611a05565b6040516020016116b0929190612239565b6040516020818303038152906040525b9392505050565b60006001600160e01b031982166380ac58cd60e01b14806116f857506001600160e01b03198216635b5e139f60e01b145b8061053557506301ffc9a760e01b6001600160e01b0319831614610535565b6000828152600260205260408120546001600160a01b039081169083161561174457611744818486611a98565b6001600160a01b038116156117825761176160008560008061145d565b6001600160a01b038116600090815260036020526040902080546000190190555b6001600160a01b038516156117b1576001600160a01b0385166000908152600360205260409020805460010190555b60008481526002602052604080822080546001600160a01b0319166001600160a01b0389811691821790925591518793918516917fddf252ad1be2c89b69c2b068fc378daa952ba7f163c4a11628f55a4df523b3ef91a4949350505050565b600061181b83610b37565b60008381526007602052604090205490915080821461186e576001600160a01b03841660009081526006602090815260408083208584528252808320548484528184208190558352600790915290208190555b5060009182526007602090815260408084208490556001600160a01b039094168352600681528383209183525290812055565b6008546000906118b390600190612268565b600083815260096020526040812054600880549394509092849081106118db576118db6120a8565b9060005260206000200154905080600883815481106118fc576118fc6120a8565b60009182526020808320909101929092558281526009909152604080822084905585825281205560088054806119345761193461227b565b6001900381819060005260206000200160009055905550505050565b6000600161195d84610b37565b6119679190612268565b6001600160a01b039093166000908152600660209081526040808320868452825280832085905593825260079052919091209190915550565b6001600160a01b0382166119ca57604051633250574960e11b81526000600482015260240161062b565b60006119d88383600061101d565b90506001600160a01b03811615610715576040516339e3563760e11b81526000600482015260240161062b565b60606000611a1283611afc565b600101905060008167ffffffffffffffff811115611a3257611a32611d96565b6040519080825280601f01601f191660200182016040528015611a5c576020820181803683370190505b5090508181016020015b600019016f181899199a1a9b1b9c1cb0b131b232b360811b600a86061a8153600a8504945084611a6657509392505050565b611aa3838383611bd4565b610715576001600160a01b038316611ad157604051637e27328960e01b81526004810182905260240161062b565b60405163177e802f60e01b81526001600160a01b03831660048201526024810182905260440161062b565b60008072184f03e93ff9f4daa797ed6e38ed64bf6a1f0160401b8310611b3b5772184f03e93ff9f4daa797ed6e38ed64bf6a1f0160401b830492506040015b6d04ee2d6d415b85acef81000000008310611b67576d04ee2d6d415b85acef8100000000830492506020015b662386f26fc100008310611b8557662386f26fc10000830492506010015b6305f5e1008310611b9d576305f5e100830492506008015b6127108310611bb157612710830492506004015b60648310611bc3576064830492506002015b600a83106105355760010192915050565b60006001600160a01b0383161580159061102a5750826001600160a01b0316846001600160a01b03161480611c0e5750611c0e8484610f84565b8061102a5750506000908152600460205260409020546001600160a01b03908116911614919050565b6040805160a08101825260008082526020820181905291810182905260608101829052608081019190915290565b6001600160e01b031981168114610c1b57600080fd5b600060208284031215611c8d57600080fd5b81356116c081611c65565b60005b83811015611cb3578181015183820152602001611c9b565b50506000910152565b60008151808452611cd4816020860160208601611c98565b601f01601f19169290920160200192915050565b6020815260006116c06020830184611cbc565b600060208284031215611d0d57600080fd5b5035919050565b80356001600160a01b0381168114611d2b57600080fd5b919050565b60008060408385031215611d4357600080fd5b611d4c83611d14565b946020939093013593505050565b600080600060608486031215611d6f57600080fd5b611d7884611d14565b9250611d8660208501611d14565b9150604084013590509250925092565b634e487b7160e01b600052604160045260246000fd5b600067ffffffffffffffff80841115611dc757611dc7611d96565b604051601f8501601f19908116603f01168101908282118183101715611def57611def611d96565b81604052809350858152868686011115611e0857600080fd5b858560208301376000602087830101525050509392505050565b60008060408385031215611e3557600080fd5b823567ffffffffffffffff811115611e4c57600080fd5b8301601f81018513611e5d57600080fd5b611e6c85823560208401611dac565b95602094909401359450505050565b60008060408385031215611e8e57600080fd5b50508035926020909101359150565b805182526020808201516001600160a01b039081169184019190915260408083015190911690830152606080820151908301526080908101511515910152565b6020808252825182820181905260009190848201906040850190845b81811015611f1f57611f0c838551611e9d565b9284019260a09290920191600101611ef9565b50909695505050505050565b600060208284031215611f3d57600080fd5b6116c082611d14565b60a081016105358284611e9d565b60008060408385031215611f6757600080fd5b611f7083611d14565b915060208301358015158114611f8557600080fd5b809150509250929050565b60008060008060808587031215611fa657600080fd5b611faf85611d14565b9350611fbd60208601611d14565b925060408501359150606085013567ffffffffffffffff811115611fe057600080fd5b8501601f81018713611ff157600080fd5b61200087823560208401611dac565b91505092959194509250565b6000806040838503121561201f57600080fd5b61202883611d14565b915061203660208401611d14565b90509250929050565b600181811c9082168061205357607f821691505b60208210810361207357634e487b7160e01b600052602260045260246000fd5b50919050565b634e487b7160e01b600052601160045260246000fd5b6000600182016120a1576120a1612079565b5060010190565b634e487b7160e01b600052603260045260246000fd5b8082018082111561053557610535612079565b601f82111561071557600081815260208120601f850160051c810160208610156120f85750805b601f850160051c820191505b8181101561211757828155600101612104565b505050505050565b815167ffffffffffffffff81111561213957612139611d96565b61214d81612147845461203f565b846120d1565b602080601f831160018114612182576000841561216a5750858301515b600019600386901b1c1916600185901b178555612117565b600085815260208120601f198616915b828110156121b157888601518255948401946001909101908401612192565b50858210156121cf5787850151600019600388901b60f8161c191681555b5050505050600190811b01905550565b6001600160a01b038581168252841660208201526040810183905260806060820181905260009061221290830184611cbc565b9695505050505050565b60006020828403121561222e57600080fd5b81516116c081611c65565b6000835161224b818460208801611c98565b83519083019061225f818360208801611c98565b01949350505050565b8181038181111561053557610535612079565b634e487b7160e01b600052603160045260246000fdfea264697066735822122081835d30ff3bf681988dca62a21dddd1977175fa345e779b298f77957e1fe2b164736f6c63430008140033",
  "linkReferences": {},
  "deployedLinkReferences": {}
}